{
  "contractName": "ERC23TokenMock",
  "abi": [
    {
      "constant": true,
      "inputs": [],
      "name": "totalSupply",
      "outputs": [
        {
          "name": "",
          "type": "uint256"
        }
      ],
      "payable": false,
      "stateMutability": "view",
      "type": "function"
    },
    {
      "constant": false,
      "inputs": [
        {
          "name": "_to",
          "type": "address"
        },
        {
          "name": "_value",
          "type": "uint256"
        },
        {
          "name": "_data",
          "type": "bytes"
        }
      ],
      "name": "transferERC23",
      "outputs": [
        {
          "name": "success",
          "type": "bool"
        }
      ],
      "payable": false,
      "stateMutability": "nonpayable",
      "type": "function"
    },
    {
      "constant": true,
      "inputs": [
        {
          "name": "_owner",
          "type": "address"
        }
      ],
      "name": "balanceOf",
      "outputs": [
        {
          "name": "balance",
          "type": "uint256"
        }
      ],
      "payable": false,
      "stateMutability": "view",
      "type": "function"
    },
    {
      "constant": false,
      "inputs": [
        {
          "name": "_to",
          "type": "address"
        },
        {
          "name": "_value",
          "type": "uint256"
        }
      ],
      "name": "transfer",
      "outputs": [
        {
          "name": "",
          "type": "bool"
        }
      ],
      "payable": false,
      "stateMutability": "nonpayable",
      "type": "function"
    },
    {
      "inputs": [
        {
          "name": "initialAccount",
          "type": "address"
        },
        {
          "name": "initialBalance",
          "type": "uint256"
        }
      ],
      "payable": false,
      "stateMutability": "nonpayable",
      "type": "constructor"
    },
    {
      "anonymous": false,
      "inputs": [
        {
          "indexed": true,
          "name": "from",
          "type": "address"
        },
        {
          "indexed": true,
          "name": "to",
          "type": "address"
        },
        {
          "indexed": false,
          "name": "value",
          "type": "uint256"
        }
      ],
      "name": "Transfer",
      "type": "event"
    }
  ],
  "bytecode": "0x6060604052341561000f57600080fd5b6040516040806106408339810160405280805190602001909190805190602001909190505080600160008473ffffffffffffffffffffffffffffffffffffffff1673ffffffffffffffffffffffffffffffffffffffff168152602001908152602001600020819055508060008190555050506105b0806100906000396000f300606060405260043610610062576000357c0100000000000000000000000000000000000000000000000000000000900463ffffffff16806318160ddd14610067578063685c60de1461009057806370a082311461012d578063a9059cbb1461017a575b600080fd5b341561007257600080fd5b61007a6101d4565b6040518082815260200191505060405180910390f35b341561009b57600080fd5b610113600480803573ffffffffffffffffffffffffffffffffffffffff1690602001909190803590602001909190803590602001908201803590602001908080601f016020809104026020016040519081016040528093929190818152602001838380828437820191505050505050919050506101da565b604051808215151515815260200191505060405180910390f35b341561013857600080fd5b610164600480803573ffffffffffffffffffffffffffffffffffffffff1690602001909190505061032e565b6040518082815260200191505060405180910390f35b341561018557600080fd5b6101ba600480803573ffffffffffffffffffffffffffffffffffffffff16906020019091908035906020019091905050610377565b604051808215151515815260200191505060405180910390f35b60005481565b60008060006101e98686610377565b5060009150853b151991508115610321578590508073ffffffffffffffffffffffffffffffffffffffff1663c0ee0b8a3387876040518463ffffffff167c0100000000000000000000000000000000000000000000000000000000028152600401808473ffffffffffffffffffffffffffffffffffffffff1673ffffffffffffffffffffffffffffffffffffffff16815260200183815260200180602001828103825283818151815260200191508051906020019080838360005b838110156102bf5780820151818401526020810190506102a4565b50505050905090810190601f1680156102ec5780820380516001836020036101000a031916815260200191505b50945050505050600060405180830381600087803b151561030c57600080fd5b6102c65a03f1151561031d57600080fd5b5050505b6001925050509392505050565b6000600160008373ffffffffffffffffffffffffffffffffffffffff1673ffffffffffffffffffffffffffffffffffffffff168152602001908152602001600020549050919050565b60008073ffffffffffffffffffffffffffffffffffffffff168373ffffffffffffffffffffffffffffffffffffffff16141515156103b457600080fd5b61040682600160003373ffffffffffffffffffffffffffffffffffffffff1673ffffffffffffffffffffffffffffffffffffffff1681526020019081526020016000205461054d90919063ffffffff16565b600160003373ffffffffffffffffffffffffffffffffffffffff1673ffffffffffffffffffffffffffffffffffffffff1681526020019081526020016000208190555061049b82600160008673ffffffffffffffffffffffffffffffffffffffff1673ffffffffffffffffffffffffffffffffffffffff1681526020019081526020016000205461056690919063ffffffff16565b600160008573ffffffffffffffffffffffffffffffffffffffff1673ffffffffffffffffffffffffffffffffffffffff168152602001908152602001600020819055508273ffffffffffffffffffffffffffffffffffffffff163373ffffffffffffffffffffffffffffffffffffffff167fddf252ad1be2c89b69c2b068fc378daa952ba7f163c4a11628f55a4df523b3ef846040518082815260200191505060405180910390a36001905092915050565b600082821115151561055b57fe5b818303905092915050565b600080828401905083811015151561057a57fe5b80915050929150505600a165627a7a723058203b3f0e592bc4c21a2fb69c10f61de01e93e80884b5a73d726d2027a73f6dfe620029",
  "source": "pragma solidity ^0.4.11;\n\n\nimport '../../contracts/token/BasicToken.sol';\n\n\ncontract ERC23ContractInterface {\n  function tokenFallback(address _from, uint256 _value, bytes _data) external;\n}\n\ncontract ERC23TokenMock is BasicToken {\n\n  function ERC23TokenMock(address initialAccount, uint256 initialBalance) {\n    balances[initialAccount] = initialBalance;\n    totalSupply = initialBalance;\n  }\n\n  // ERC23 compatible transfer function (except the name)\n  function transferERC23(address _to, uint256 _value, bytes _data)\n    returns (bool success)\n  {\n    transfer(_to, _value);\n    bool is_contract = false;\n    assembly {\n      is_contract := not(iszero(extcodesize(_to)))\n    }\n    if(is_contract) {\n      ERC23ContractInterface receiver = ERC23ContractInterface(_to);\n      receiver.tokenFallback(msg.sender, _value, _data);\n    }\n    return true;\n  }\n}\n",
  "sourcePath": "/home/alex4o/Projects/CryptoTurtles-gui/contracts/zeppelin-solidity/test/helpers/ERC23TokenMock.sol",
  "compiler": {
    "name": "solc",
    "version": "0.4.18+commit.9cf6e910.Emscripten.clang"
  },
  "schemaVersion": "1.0.1",
  "updatedAt": "2017-11-25T22:05:38.954Z"
}