{
  "contractName": "InsecureTargetMock",
  "abi": [
    {
      "constant": false,
      "inputs": [],
      "name": "checkInvariant",
      "outputs": [
        {
          "name": "",
          "type": "bool"
        }
      ],
      "payable": false,
      "stateMutability": "nonpayable",
      "type": "function"
    }
  ],
  "bytecode": "0x60606040523415600e57600080fd5b60a28061001c6000396000f300606060405260043610603f576000357c0100000000000000000000000000000000000000000000000000000000900463ffffffff168063e79487da146044575b600080fd5b3415604e57600080fd5b6054606e565b604051808215151515815260200191505060405180910390f35b6000809050905600a165627a7a72305820daf901d74f9d008b787e0771cb0ad8a53954bc7546b76d23e151b935b3d64da30029",
  "source": "pragma solidity ^0.4.11;\n\n\nimport {Bounty, Target} from \"../../contracts/Bounty.sol\";\n\n\ncontract InsecureTargetMock is Target {\n  function checkInvariant() returns(bool){\n    return false;\n  }\n}\n\ncontract InsecureTargetBounty is Bounty {\n  function deployContract() internal returns (address) {\n    return new InsecureTargetMock();\n  }\n}\n",
  "sourcePath": "/home/alex4o/Projects/CryptoTurtles-gui/contracts/zeppelin-solidity/test/helpers/InsecureTargetBounty.sol",
  "compiler": {
    "name": "solc",
    "version": "0.4.18+commit.9cf6e910.Emscripten.clang"
  },
  "schemaVersion": "1.0.1",
  "updatedAt": "2017-11-25T22:05:38.954Z"
}