{
  "contractName": "SafeERC20Helper",
  "abi": [
    {
      "constant": false,
      "inputs": [],
      "name": "doFailingTransferFrom",
      "outputs": [],
      "payable": false,
      "stateMutability": "nonpayable",
      "type": "function"
    },
    {
      "constant": false,
      "inputs": [],
      "name": "doSucceedingTransfer",
      "outputs": [],
      "payable": false,
      "stateMutability": "nonpayable",
      "type": "function"
    },
    {
      "constant": false,
      "inputs": [],
      "name": "doFailingApprove",
      "outputs": [],
      "payable": false,
      "stateMutability": "nonpayable",
      "type": "function"
    },
    {
      "constant": false,
      "inputs": [],
      "name": "doFailingTransfer",
      "outputs": [],
      "payable": false,
      "stateMutability": "nonpayable",
      "type": "function"
    },
    {
      "constant": false,
      "inputs": [],
      "name": "doSucceedingApprove",
      "outputs": [],
      "payable": false,
      "stateMutability": "nonpayable",
      "type": "function"
    },
    {
      "constant": false,
      "inputs": [],
      "name": "doSucceedingTransferFrom",
      "outputs": [],
      "payable": false,
      "stateMutability": "nonpayable",
      "type": "function"
    },
    {
      "inputs": [],
      "payable": false,
      "stateMutability": "nonpayable",
      "type": "constructor"
    }
  ],
  "bytecode": "0x6060604052341561000f57600080fd5b6100176100cf565b604051809103906000f080151561002d57600080fd5b6000806101000a81548173ffffffffffffffffffffffffffffffffffffffff021916908373ffffffffffffffffffffffffffffffffffffffff1602179055506100746100df565b604051809103906000f080151561008a57600080fd5b600160006101000a81548173ffffffffffffffffffffffffffffffffffffffff021916908373ffffffffffffffffffffffffffffffffffffffff1602179055506100ef565b604051610313806106b683390190565b604051610316806109c983390190565b6105b8806100fe6000396000f300606060405260043610610078576000357c0100000000000000000000000000000000000000000000000000000000900463ffffffff16806350930ca51461007d57806356b2c5bb146100925780636573ee1e146100a7578063afa03ac9146100bc578063b19faed8146100d1578063d7228bb5146100e6575b600080fd5b341561008857600080fd5b6100906100fb565b005b341561009d57600080fd5b6100a561014d565b005b34156100b257600080fd5b6100ba61019d565b005b34156100c757600080fd5b6100cf6101ec565b005b34156100dc57600080fd5b6100e461023b565b005b34156100f157600080fd5b6100f961028b565b005b61014b60008060008060009054906101000a900473ffffffffffffffffffffffffffffffffffffffff1673ffffffffffffffffffffffffffffffffffffffff166102de909392919063ffffffff16565b565b61019b600080600160009054906101000a900473ffffffffffffffffffffffffffffffffffffffff1673ffffffffffffffffffffffffffffffffffffffff166103e69092919063ffffffff16565b565b6101ea6000806000809054906101000a900473ffffffffffffffffffffffffffffffffffffffff1673ffffffffffffffffffffffffffffffffffffffff166104b99092919063ffffffff16565b565b6102396000806000809054906101000a900473ffffffffffffffffffffffffffffffffffffffff1673ffffffffffffffffffffffffffffffffffffffff166103e69092919063ffffffff16565b565b610289600080600160009054906101000a900473ffffffffffffffffffffffffffffffffffffffff1673ffffffffffffffffffffffffffffffffffffffff166104b99092919063ffffffff16565b565b6102dc6000806000600160009054906101000a900473ffffffffffffffffffffffffffffffffffffffff1673ffffffffffffffffffffffffffffffffffffffff166102de909392919063ffffffff16565b565b8373ffffffffffffffffffffffffffffffffffffffff166323b872dd8484846000604051602001526040518463ffffffff167c0100000000000000000000000000000000000000000000000000000000028152600401808473ffffffffffffffffffffffffffffffffffffffff1673ffffffffffffffffffffffffffffffffffffffff1681526020018373ffffffffffffffffffffffffffffffffffffffff1673ffffffffffffffffffffffffffffffffffffffff1681526020018281526020019350505050602060405180830381600087803b15156103bd57600080fd5b6102c65a03f115156103ce57600080fd5b5050506040518051905015156103e057fe5b50505050565b8273ffffffffffffffffffffffffffffffffffffffff1663a9059cbb83836000604051602001526040518363ffffffff167c0100000000000000000000000000000000000000000000000000000000028152600401808373ffffffffffffffffffffffffffffffffffffffff1673ffffffffffffffffffffffffffffffffffffffff16815260200182815260200192505050602060405180830381600087803b151561049157600080fd5b6102c65a03f115156104a257600080fd5b5050506040518051905015156104b457fe5b505050565b8273ffffffffffffffffffffffffffffffffffffffff1663095ea7b383836000604051602001526040518363ffffffff167c0100000000000000000000000000000000000000000000000000000000028152600401808373ffffffffffffffffffffffffffffffffffffffff1673ffffffffffffffffffffffffffffffffffffffff16815260200182815260200192505050602060405180830381600087803b151561056457600080fd5b6102c65a03f1151561057557600080fd5b50505060405180519050151561058757fe5b5050505600a165627a7a72305820fd9719a05bc00b13599db56c1bcfc57fc4ec60a0933fc0466a9d66a00a79a0db00296060604052341561000f57600080fd5b6102f58061001e6000396000f300606060405260043610610078576000357c0100000000000000000000000000000000000000000000000000000000900463ffffffff168063095ea7b31461007d57806318160ddd146100d757806323b872dd1461010057806370a0823114610179578063a9059cbb146101c6578063dd62ed3e14610220575b600080fd5b341561008857600080fd5b6100bd600480803573ffffffffffffffffffffffffffffffffffffffff1690602001909190803590602001909190505061028c565b604051808215151515815260200191505060405180910390f35b34156100e257600080fd5b6100ea610297565b6040518082815260200191505060405180910390f35b341561010b57600080fd5b61015f600480803573ffffffffffffffffffffffffffffffffffffffff1690602001909190803573ffffffffffffffffffffffffffffffffffffffff1690602001909190803590602001909190505061029d565b604051808215151515815260200191505060405180910390f35b341561018457600080fd5b6101b0600480803573ffffffffffffffffffffffffffffffffffffffff169060200190919050506102a9565b6040518082815260200191505060405180910390f35b34156101d157600080fd5b610206600480803573ffffffffffffffffffffffffffffffffffffffff169060200190919080359060200190919050506102b3565b604051808215151515815260200191505060405180910390f35b341561022b57600080fd5b610276600480803573ffffffffffffffffffffffffffffffffffffffff1690602001909190803573ffffffffffffffffffffffffffffffffffffffff169060200190919050506102be565b6040518082815260200191505060405180910390f35b600080905092915050565b60005481565b60008090509392505050565b6000809050919050565b600080905092915050565b6000809050929150505600a165627a7a7230582075ef33dd435713352fc58fa7000c32840824d0130065634da12c54578e9e068700296060604052341561000f57600080fd5b6102f88061001e6000396000f300606060405260043610610078576000357c0100000000000000000000000000000000000000000000000000000000900463ffffffff168063095ea7b31461007d57806318160ddd146100d757806323b872dd1461010057806370a0823114610179578063a9059cbb146101c6578063dd62ed3e14610220575b600080fd5b341561008857600080fd5b6100bd600480803573ffffffffffffffffffffffffffffffffffffffff1690602001909190803590602001909190505061028c565b604051808215151515815260200191505060405180910390f35b34156100e257600080fd5b6100ea610298565b6040518082815260200191505060405180910390f35b341561010b57600080fd5b61015f600480803573ffffffffffffffffffffffffffffffffffffffff1690602001909190803573ffffffffffffffffffffffffffffffffffffffff1690602001909190803590602001909190505061029e565b604051808215151515815260200191505060405180910390f35b341561018457600080fd5b6101b0600480803573ffffffffffffffffffffffffffffffffffffffff169060200190919050506102ab565b6040518082815260200191505060405180910390f35b34156101d157600080fd5b610206600480803573ffffffffffffffffffffffffffffffffffffffff169060200190919080359060200190919050506102b5565b604051808215151515815260200191505060405180910390f35b341561022b57600080fd5b610276600480803573ffffffffffffffffffffffffffffffffffffffff1690602001909190803573ffffffffffffffffffffffffffffffffffffffff169060200190919050506102c1565b6040518082815260200191505060405180910390f35b60006001905092915050565b60005481565b6000600190509392505050565b6000809050919050565b60006001905092915050565b6000809050929150505600a165627a7a7230582090b003a050ef208a04e57d10b53de0c4908108739f129077e2da38ef4b8eb5c90029",
  "source": "pragma solidity ^0.4.11;\n\nimport '../../contracts/token/ERC20.sol';\nimport '../../contracts/token/SafeERC20.sol';\n\ncontract ERC20FailingMock is ERC20 {\n  function transfer(address, uint256) returns (bool) {\n    return false;\n  }\n\n  function transferFrom(address, address, uint256) returns (bool) {\n    return false;\n  }\n\n  function approve(address, uint256) returns (bool) {\n    return false;\n  }\n\n  function balanceOf(address) constant returns (uint256) {\n    return 0;\n  }\n\n  function allowance(address, address) constant returns (uint256) {\n    return 0;\n  }\n}\n\ncontract ERC20SucceedingMock is ERC20 {\n  function transfer(address, uint256) returns (bool) {\n    return true;\n  }\n\n  function transferFrom(address, address, uint256) returns (bool) {\n    return true;\n  }\n\n  function approve(address, uint256) returns (bool) {\n    return true;\n  }\n\n  function balanceOf(address) constant returns (uint256) {\n    return 0;\n  }\n\n  function allowance(address, address) constant returns (uint256) {\n    return 0;\n  }\n}\n\ncontract SafeERC20Helper {\n  using SafeERC20 for ERC20;\n\n  ERC20 failing;\n  ERC20 succeeding;\n\n  function SafeERC20Helper() {\n    failing = new ERC20FailingMock();\n    succeeding = new ERC20SucceedingMock();\n  }\n\n  function doFailingTransfer() {\n    failing.safeTransfer(0, 0);\n  }\n\n  function doFailingTransferFrom() {\n    failing.safeTransferFrom(0, 0, 0);\n  }\n\n  function doFailingApprove() {\n    failing.safeApprove(0, 0);\n  }\n\n  function doSucceedingTransfer() {\n    succeeding.safeTransfer(0, 0);\n  }\n\n  function doSucceedingTransferFrom() {\n    succeeding.safeTransferFrom(0, 0, 0);\n  }\n\n  function doSucceedingApprove() {\n    succeeding.safeApprove(0, 0);\n  }\n}\n",
  "sourcePath": "/home/alex4o/Projects/CryptoTurtles-gui/contracts/zeppelin-solidity/test/helpers/SafeERC20Helper.sol",
  "compiler": {
    "name": "solc",
    "version": "0.4.18+commit.9cf6e910.Emscripten.clang"
  },
  "schemaVersion": "1.0.1",
  "updatedAt": "2017-11-25T22:05:38.956Z"
}