{
  "contractName": "TokenTimelock",
  "abi": [
    {
      "constant": false,
      "inputs": [],
      "name": "claim",
      "outputs": [],
      "payable": false,
      "stateMutability": "nonpayable",
      "type": "function"
    },
    {
      "constant": false,
      "inputs": [],
      "name": "release",
      "outputs": [],
      "payable": false,
      "stateMutability": "nonpayable",
      "type": "function"
    },
    {
      "inputs": [
        {
          "name": "_token",
          "type": "address"
        },
        {
          "name": "_beneficiary",
          "type": "address"
        },
        {
          "name": "_releaseTime",
          "type": "uint64"
        }
      ],
      "payable": false,
      "stateMutability": "nonpayable",
      "type": "constructor"
    }
  ],
  "bytecode": "0x6060604052341561000f57600080fd5b60405160608061048383398101604052808051906020019091908051906020019091908051906020019091905050428167ffffffffffffffff1611151561005557600080fd5b826000806101000a81548173ffffffffffffffffffffffffffffffffffffffff021916908373ffffffffffffffffffffffffffffffffffffffff16021790555081600160006101000a81548173ffffffffffffffffffffffffffffffffffffffff021916908373ffffffffffffffffffffffffffffffffffffffff16021790555080600160146101000a81548167ffffffffffffffff021916908367ffffffffffffffff160217905550505050610372806101116000396000f30060606040526004361061004c576000357c0100000000000000000000000000000000000000000000000000000000900463ffffffff1680634e71d92d1461005157806386d1a69f14610066575b600080fd5b341561005c57600080fd5b61006461007b565b005b341561007157600080fd5b6100796100e1565b005b600160009054906101000a900473ffffffffffffffffffffffffffffffffffffffff1673ffffffffffffffffffffffffffffffffffffffff163373ffffffffffffffffffffffffffffffffffffffff161415156100d757600080fd5b6100df6100e1565b565b6000600160149054906101000a900467ffffffffffffffff1667ffffffffffffffff16421015151561011257600080fd5b6000809054906101000a900473ffffffffffffffffffffffffffffffffffffffff1673ffffffffffffffffffffffffffffffffffffffff166370a08231306000604051602001526040518263ffffffff167c0100000000000000000000000000000000000000000000000000000000028152600401808273ffffffffffffffffffffffffffffffffffffffff1673ffffffffffffffffffffffffffffffffffffffff168152602001915050602060405180830381600087803b15156101d657600080fd5b6102c65a03f115156101e757600080fd5b50505060405180519050905060008111151561020257600080fd5b610270600160009054906101000a900473ffffffffffffffffffffffffffffffffffffffff16826000809054906101000a900473ffffffffffffffffffffffffffffffffffffffff1673ffffffffffffffffffffffffffffffffffffffff166102739092919063ffffffff16565b50565b8273ffffffffffffffffffffffffffffffffffffffff1663a9059cbb83836000604051602001526040518363ffffffff167c0100000000000000000000000000000000000000000000000000000000028152600401808373ffffffffffffffffffffffffffffffffffffffff1673ffffffffffffffffffffffffffffffffffffffff16815260200182815260200192505050602060405180830381600087803b151561031e57600080fd5b6102c65a03f1151561032f57600080fd5b50505060405180519050151561034157fe5b5050505600a165627a7a7230582028bfe8e93a32ca9099b8b0485f956582c85f31f631f1bf248c7a3d2f6a0ce4c80029",
  "source": "pragma solidity ^0.4.11;\n\n\nimport './ERC20Basic.sol';\nimport \"../token/SafeERC20.sol\";\n\n/**\n * @title TokenTimelock\n * @dev TokenTimelock is a token holder contract that will allow a\n * beneficiary to extract the tokens after a given release time\n */\ncontract TokenTimelock {\n  using SafeERC20 for ERC20Basic;\n\n  // ERC20 basic token contract being held\n  ERC20Basic token;\n\n  // beneficiary of tokens after they are released\n  address beneficiary;\n\n  // timestamp when token release is enabled\n  uint64 releaseTime;\n\n  function TokenTimelock(ERC20Basic _token, address _beneficiary, uint64 _releaseTime) {\n    require(_releaseTime > now);\n    token = _token;\n    beneficiary = _beneficiary;\n    releaseTime = _releaseTime;\n  }\n\n  /**\n   * @notice Transfers tokens held by timelock to beneficiary.\n   * Deprecated: please use TokenTimelock#release instead.\n   */\n  function claim() {\n    require(msg.sender == beneficiary);\n    release();\n  }\n\n  /**\n   * @notice Transfers tokens held by timelock to beneficiary.\n   */\n  function release() {\n    require(now >= releaseTime);\n\n    uint256 amount = token.balanceOf(this);\n    require(amount > 0);\n\n    token.safeTransfer(beneficiary, amount);\n  }\n}\n",
  "sourcePath": "/home/alex4o/Projects/CryptoTurtles-gui/contracts/zeppelin-solidity/contracts/token/TokenTimelock.sol",
  "compiler": {
    "name": "solc",
    "version": "0.4.18+commit.9cf6e910.Emscripten.clang"
  },
  "schemaVersion": "1.0.1",
  "updatedAt": "2017-11-25T22:05:38.951Z"
}