{
  "contractName": "TurtleData",
  "abi": [
    {
      "constant": false,
      "inputs": [
        {
          "name": "claimer",
          "type": "address"
        },
        {
          "name": "turtleId",
          "type": "uint256"
        }
      ],
      "name": "verifyTurtleOwner",
      "outputs": [
        {
          "name": "",
          "type": "bool"
        }
      ],
      "payable": false,
      "stateMutability": "nonpayable",
      "type": "function"
    },
    {
      "constant": false,
      "inputs": [
        {
          "name": "data_type",
          "type": "uint256"
        },
        {
          "name": "encrypt_type",
          "type": "uint256"
        }
      ],
      "name": "requestData",
      "outputs": [],
      "payable": false,
      "stateMutability": "nonpayable",
      "type": "function"
    },
    {
      "constant": false,
      "inputs": [
        {
          "name": "_to",
          "type": "address"
        },
        {
          "name": "turtleId",
          "type": "uint256"
        }
      ],
      "name": "transferTurtle",
      "outputs": [],
      "payable": false,
      "stateMutability": "nonpayable",
      "type": "function"
    },
    {
      "constant": false,
      "inputs": [
        {
          "name": "contrac",
          "type": "address"
        }
      ],
      "name": "setCommunication",
      "outputs": [
        {
          "name": "",
          "type": "bool"
        }
      ],
      "payable": false,
      "stateMutability": "nonpayable",
      "type": "function"
    },
    {
      "constant": true,
      "inputs": [],
      "name": "listeningContract",
      "outputs": [
        {
          "name": "",
          "type": "address"
        }
      ],
      "payable": false,
      "stateMutability": "view",
      "type": "function"
    },
    {
      "constant": false,
      "inputs": [
        {
          "name": "name",
          "type": "string"
        },
        {
          "name": "parent1",
          "type": "uint256"
        },
        {
          "name": "parent2",
          "type": "uint256"
        }
      ],
      "name": "mintTurtle",
      "outputs": [],
      "payable": false,
      "stateMutability": "nonpayable",
      "type": "function"
    },
    {
      "constant": true,
      "inputs": [],
      "name": "globalTurtles",
      "outputs": [
        {
          "name": "",
          "type": "uint256"
        }
      ],
      "payable": false,
      "stateMutability": "view",
      "type": "function"
    },
    {
      "constant": false,
      "inputs": [],
      "name": "balanceret",
      "outputs": [
        {
          "name": "",
          "type": "uint256"
        }
      ],
      "payable": false,
      "stateMutability": "nonpayable",
      "type": "function"
    },
    {
      "constant": false,
      "inputs": [],
      "name": "updateRequests",
      "outputs": [
        {
          "name": "",
          "type": "uint256"
        }
      ],
      "payable": false,
      "stateMutability": "nonpayable",
      "type": "function"
    },
    {
      "constant": true,
      "inputs": [
        {
          "name": "",
          "type": "uint256"
        }
      ],
      "name": "TurtleNames",
      "outputs": [
        {
          "name": "",
          "type": "string"
        }
      ],
      "payable": false,
      "stateMutability": "view",
      "type": "function"
    },
    {
      "constant": true,
      "inputs": [],
      "name": "coinContract",
      "outputs": [
        {
          "name": "",
          "type": "address"
        }
      ],
      "payable": false,
      "stateMutability": "view",
      "type": "function"
    },
    {
      "constant": true,
      "inputs": [
        {
          "name": "",
          "type": "uint256"
        }
      ],
      "name": "TurtleOwner",
      "outputs": [
        {
          "name": "",
          "type": "address"
        }
      ],
      "payable": false,
      "stateMutability": "view",
      "type": "function"
    },
    {
      "constant": false,
      "inputs": [
        {
          "name": "turtleId",
          "type": "uint256"
        }
      ],
      "name": "turtleName",
      "outputs": [
        {
          "name": "",
          "type": "string"
        }
      ],
      "payable": false,
      "stateMutability": "nonpayable",
      "type": "function"
    },
    {
      "constant": true,
      "inputs": [
        {
          "name": "",
          "type": "uint256"
        }
      ],
      "name": "Turtles",
      "outputs": [
        {
          "name": "",
          "type": "uint256"
        }
      ],
      "payable": false,
      "stateMutability": "view",
      "type": "function"
    },
    {
      "constant": false,
      "inputs": [
        {
          "name": "owner",
          "type": "address"
        }
      ],
      "name": "turtleCount",
      "outputs": [
        {
          "name": "",
          "type": "uint256"
        }
      ],
      "payable": false,
      "stateMutability": "nonpayable",
      "type": "function"
    },
    {
      "constant": true,
      "inputs": [
        {
          "name": "",
          "type": "address"
        }
      ],
      "name": "TurtlesOwned",
      "outputs": [
        {
          "name": "",
          "type": "uint256"
        }
      ],
      "payable": false,
      "stateMutability": "view",
      "type": "function"
    },
    {
      "constant": false,
      "inputs": [],
      "name": "calculateRequests",
      "outputs": [
        {
          "name": "",
          "type": "uint256"
        }
      ],
      "payable": false,
      "stateMutability": "nonpayable",
      "type": "function"
    },
    {
      "inputs": [],
      "payable": false,
      "stateMutability": "nonpayable",
      "type": "constructor"
    },
    {
      "anonymous": false,
      "inputs": [
        {
          "indexed": false,
          "name": "submitter",
          "type": "address"
        },
        {
          "indexed": false,
          "name": "data_type",
          "type": "uint256"
        },
        {
          "indexed": false,
          "name": "req",
          "type": "uint256"
        }
      ],
      "name": "dataSubmitted",
      "type": "event"
    },
    {
      "anonymous": false,
      "inputs": [
        {
          "indexed": false,
          "name": "submitter",
          "type": "address"
        },
        {
          "indexed": false,
          "name": "encryptType",
          "type": "uint256"
        },
        {
          "indexed": false,
          "name": "req",
          "type": "uint256"
        }
      ],
      "name": "sendResponse",
      "type": "event"
    },
    {
      "anonymous": false,
      "inputs": [
        {
          "indexed": false,
          "name": "submitter",
          "type": "address"
        }
      ],
      "name": "noRequests",
      "type": "event"
    },
    {
      "anonymous": false,
      "inputs": [
        {
          "indexed": false,
          "name": "submitter",
          "type": "address"
        },
        {
          "indexed": false,
          "name": "data_type",
          "type": "uint256"
        },
        {
          "indexed": false,
          "name": "encrypt_type",
          "type": "uint256"
        }
      ],
      "name": "dataRequest",
      "type": "event"
    },
    {
      "anonymous": false,
      "inputs": [
        {
          "indexed": false,
          "name": "sender",
          "type": "address"
        },
        {
          "indexed": false,
          "name": "name",
          "type": "string"
        },
        {
          "indexed": false,
          "name": "parent1",
          "type": "uint256"
        },
        {
          "indexed": false,
          "name": "parent2",
          "type": "uint256"
        }
      ],
      "name": "mintedTurtle",
      "type": "event"
    },
    {
      "anonymous": false,
      "inputs": [
        {
          "indexed": false,
          "name": "to",
          "type": "address"
        },
        {
          "indexed": false,
          "name": "from",
          "type": "address"
        }
      ],
      "name": "turtleTransfer",
      "type": "event"
    }
  ],
  "bytecode": "0x6060604052341561000f57600080fd5b6000600981905550611649806100266000396000f3006060604052600436106100f1576000357c0100000000000000000000000000000000000000000000000000000000900463ffffffff1680630432d8f8146100f657806306526c1f146101505780630ad4e1611461017c5780630e330473146101be57806316b6370a1461020f5780631cd805a2146102645780633dde32a1146102d357806344d869bc146102fc578063474eebf3146103255780636b7ed87c1461034e57806372dd52e3146103ea578063932b59bd1461043f578063a797af67146104a2578063b71971811461053e578063c8dcee4d14610575578063ddb27945146105c2578063e8b368691461060f575b600080fd5b341561010157600080fd5b610136600480803573ffffffffffffffffffffffffffffffffffffffff16906020019091908035906020019091905050610638565b604051808215151515815260200191505060405180910390f35b341561015b57600080fd5b61017a60048080359060200190919080359060200190919050506106b5565b005b341561018757600080fd5b6101bc600480803573ffffffffffffffffffffffffffffffffffffffff1690602001909190803590602001909190505061072c565b005b34156101c957600080fd5b6101f5600480803573ffffffffffffffffffffffffffffffffffffffff1690602001909190505061082e565b604051808215151515815260200191505060405180910390f35b341561021a57600080fd5b6102226108db565b604051808273ffffffffffffffffffffffffffffffffffffffff1673ffffffffffffffffffffffffffffffffffffffff16815260200191505060405180910390f35b341561026f57600080fd5b6102d1600480803590602001908201803590602001908080601f01602080910402602001604051908101604052809392919081815260200183838082843782019150505050505091908035906020019091908035906020019091905050610900565b005b34156102de57600080fd5b6102e6610cd0565b6040518082815260200191505060405180910390f35b341561030757600080fd5b61030f610cd6565b6040518082815260200191505060405180910390f35b341561033057600080fd5b610338610dbd565b6040518082815260200191505060405180910390f35b341561035957600080fd5b61036f6004808035906020019091905050611037565b6040518080602001828103825283818151815260200191508051906020019080838360005b838110156103af578082015181840152602081019050610394565b50505050905090810190601f1680156103dc5780820380516001836020036101000a031916815260200191505b509250505060405180910390f35b34156103f557600080fd5b6103fd6110e7565b604051808273ffffffffffffffffffffffffffffffffffffffff1673ffffffffffffffffffffffffffffffffffffffff16815260200191505060405180910390f35b341561044a57600080fd5b610460600480803590602001909190505061110d565b604051808273ffffffffffffffffffffffffffffffffffffffff1673ffffffffffffffffffffffffffffffffffffffff16815260200191505060405180910390f35b34156104ad57600080fd5b6104c36004808035906020019091905050611140565b6040518080602001828103825283818151815260200191508051906020019080838360005b838110156105035780820151818401526020810190506104e8565b50505050905090810190601f1680156105305780820380516001836020036101000a031916815260200191505b509250505060405180910390f35b341561054957600080fd5b61055f60048080359060200190919050506111fb565b6040518082815260200191505060405180910390f35b341561058057600080fd5b6105ac600480803573ffffffffffffffffffffffffffffffffffffffff16906020019091905050611213565b6040518082815260200191505060405180910390f35b34156105cd57600080fd5b6105f9600480803573ffffffffffffffffffffffffffffffffffffffff1690602001909190505061125c565b6040518082815260200191505060405180910390f35b341561061a57600080fd5b610622611274565b6040518082815260200191505060405180910390f35b60006006600083815260200190815260200160002060009054906101000a900473ffffffffffffffffffffffffffffffffffffffff1673ffffffffffffffffffffffffffffffffffffffff168373ffffffffffffffffffffffffffffffffffffffff1614156106aa57600190506106af565b600090505b92915050565b7feea72a35e7f3ef0a9623382eb99f01a6d3c3a7e8952ec5c1def4cfe8f70f584f338383604051808473ffffffffffffffffffffffffffffffffffffffff1673ffffffffffffffffffffffffffffffffffffffff168152602001838152602001828152602001935050505060405180910390a15050565b6107363382610638565b151561074157600080fd5b816006600083815260200190815260200160002060006101000a81548173ffffffffffffffffffffffffffffffffffffffff021916908373ffffffffffffffffffffffffffffffffffffffff1602179055507fe30dd2aa71447a3979f863da9abd977d7ee9f6cb5e8f5edffcd50be78a2a12278233604051808373ffffffffffffffffffffffffffffffffffffffff1673ffffffffffffffffffffffffffffffffffffffff1681526020018273ffffffffffffffffffffffffffffffffffffffff1673ffffffffffffffffffffffffffffffffffffffff1681526020019250505060405180910390a15050565b6000816000806101000a81548173ffffffffffffffffffffffffffffffffffffffff021916908373ffffffffffffffffffffffffffffffffffffffff1602179055506000809054906101000a900473ffffffffffffffffffffffffffffffffffffffff16600160006101000a81548173ffffffffffffffffffffffffffffffffffffffff021916908373ffffffffffffffffffffffffffffffffffffffff16021790555060019050919050565b6000809054906101000a900473ffffffffffffffffffffffffffffffffffffffff1681565b61090a3383610638565b801561091c575061091b3382610638565b5b151561092757600080fd5b6000600360003373ffffffffffffffffffffffffffffffffffffffff1673ffffffffffffffffffffffffffffffffffffffff168152602001908152602001600020541115610c67576109c26001600360003373ffffffffffffffffffffffffffffffffffffffff1673ffffffffffffffffffffffffffffffffffffffff1681526020019081526020016000205461152d90919063ffffffff16565b600360003373ffffffffffffffffffffffffffffffffffffffff1673ffffffffffffffffffffffffffffffffffffffff16815260200190815260200160002081905550610a1b600160095461154690919063ffffffff16565b60098190555060095481836201e24042010101016005600060095481526020019081526020016000208190555082600760006005600060095481526020019081526020016000205481526020019081526020016000209080519060200190610a84929190611564565b50336006600060056000600954815260200190815260200160002054815260200190815260200160002060006101000a81548173ffffffffffffffffffffffffffffffffffffffff021916908373ffffffffffffffffffffffffffffffffffffffff160217905550610b3f6001600860003373ffffffffffffffffffffffffffffffffffffffff1673ffffffffffffffffffffffffffffffffffffffff1681526020019081526020016000205461154690919063ffffffff16565b600860003373ffffffffffffffffffffffffffffffffffffffff1673ffffffffffffffffffffffffffffffffffffffff168152602001908152602001600020819055507f8b8b946fb87eb2200dbf987d7b1f689fa0950262c0696cbdd9c7800a940034db33848484604051808573ffffffffffffffffffffffffffffffffffffffff1673ffffffffffffffffffffffffffffffffffffffff16815260200180602001848152602001838152602001828103825285818151815260200191508051906020019080838360005b83811015610c25578082015181840152602081019050610c0a565b50505050905090810190601f168015610c525780820380516001836020036101000a031916815260200191505b509550505050505060405180910390a1610ccb565b7f3a0a92c4f88c4cb54c7d36b2242e8c325a1cf162c60f38d7e8b366b85c8b8cfb33604051808273ffffffffffffffffffffffffffffffffffffffff1673ffffffffffffffffffffffffffffffffffffffff16815260200191505060405180910390a15b505050565b60095481565b6000600160009054906101000a900473ffffffffffffffffffffffffffffffffffffffff1673ffffffffffffffffffffffffffffffffffffffff166370a08231336000604051602001526040518263ffffffff167c0100000000000000000000000000000000000000000000000000000000028152600401808273ffffffffffffffffffffffffffffffffffffffff1673ffffffffffffffffffffffffffffffffffffffff168152602001915050602060405180830381600087803b1515610d9d57600080fd5b6102c65a03f11515610dae57600080fd5b50505060405180519050905090565b6000806000600160009054906101000a900473ffffffffffffffffffffffffffffffffffffffff1673ffffffffffffffffffffffffffffffffffffffff166370a08231336000604051602001526040518263ffffffff167c0100000000000000000000000000000000000000000000000000000000028152600401808273ffffffffffffffffffffffffffffffffffffffff1673ffffffffffffffffffffffffffffffffffffffff168152602001915050602060405180830381600087803b1515610e8757600080fd5b6102c65a03f11515610e9857600080fd5b505050604051805190509150610ef6600260003373ffffffffffffffffffffffffffffffffffffffff1673ffffffffffffffffffffffffffffffffffffffff168152602001908152602001600020548361152d90919063ffffffff16565b9050600081101515610fac57610f68680ad78ebc5ac620000082811515610f1957fe5b04600360003373ffffffffffffffffffffffffffffffffffffffff1673ffffffffffffffffffffffffffffffffffffffff1681526020019081526020016000205461154690919063ffffffff16565b600360003373ffffffffffffffffffffffffffffffffffffffff1673ffffffffffffffffffffffffffffffffffffffff168152602001908152602001600020819055505b81600260003373ffffffffffffffffffffffffffffffffffffffff1673ffffffffffffffffffffffffffffffffffffffff16815260200190815260200160002081905550600360003373ffffffffffffffffffffffffffffffffffffffff1673ffffffffffffffffffffffffffffffffffffffff168152602001908152602001600020549250505090565b60076020528060005260406000206000915090508054600181600116156101000203166002900480601f0160208091040260200160405190810160405280929190818152602001828054600181600116156101000203166002900480156110df5780601f106110b4576101008083540402835291602001916110df565b820191906000526020600020905b8154815290600101906020018083116110c257829003601f168201915b505050505081565b600160009054906101000a900473ffffffffffffffffffffffffffffffffffffffff1681565b60066020528060005260406000206000915054906101000a900473ffffffffffffffffffffffffffffffffffffffff1681565b6111486115e4565b600760008381526020019081526020016000208054600181600116156101000203166002900480601f0160208091040260200160405190810160405280929190818152602001828054600181600116156101000203166002900480156111ef5780601f106111c4576101008083540402835291602001916111ef565b820191906000526020600020905b8154815290600101906020018083116111d257829003601f168201915b50505050509050919050565b60056020528060005260406000206000915090505481565b6000600860008373ffffffffffffffffffffffffffffffffffffffff1673ffffffffffffffffffffffffffffffffffffffff168152602001908152602001600020549050919050565b60086020528060005260406000206000915090505481565b600080620189c0600460003373ffffffffffffffffffffffffffffffffffffffff1673ffffffffffffffffffffffffffffffffffffffff1681526020019081526020016000205401431115156112c957600080fd5b600160009054906101000a900473ffffffffffffffffffffffffffffffffffffffff1673ffffffffffffffffffffffffffffffffffffffff166370a08231336000604051602001526040518263ffffffff167c0100000000000000000000000000000000000000000000000000000000028152600401808273ffffffffffffffffffffffffffffffffffffffff1673ffffffffffffffffffffffffffffffffffffffff168152602001915050602060405180830381600087803b151561138e57600080fd5b6102c65a03f1151561139f57600080fd5b50505060405180519050905060008110151561145f5761141b680ad78ebc5ac6200000828115156113cc57fe5b04600360003373ffffffffffffffffffffffffffffffffffffffff1673ffffffffffffffffffffffffffffffffffffffff1681526020019081526020016000205461154690919063ffffffff16565b600360003373ffffffffffffffffffffffffffffffffffffffff1673ffffffffffffffffffffffffffffffffffffffff168152602001908152602001600020819055505b80600260003373ffffffffffffffffffffffffffffffffffffffff1673ffffffffffffffffffffffffffffffffffffffff1681526020019081526020016000208190555043600460003373ffffffffffffffffffffffffffffffffffffffff1673ffffffffffffffffffffffffffffffffffffffff16815260200190815260200160002081905550600360003373ffffffffffffffffffffffffffffffffffffffff1673ffffffffffffffffffffffffffffffffffffffff1681526020019081526020016000205491505090565b600082821115151561153b57fe5b818303905092915050565b600080828401905083811015151561155a57fe5b8091505092915050565b828054600181600116156101000203166002900490600052602060002090601f016020900481019282601f106115a557805160ff19168380011785556115d3565b828001600101855582156115d3579182015b828111156115d25782518255916020019190600101906115b7565b5b5090506115e091906115f8565b5090565b602060405190810160405280600081525090565b61161a91905b808211156116165760008160009055506001016115fe565b5090565b905600a165627a7a72305820d494caa3385892dd204bf6196b5348a9f3f4061457067491ed2734f00088f8770029",
  "source": "pragma solidity ^0.4.11;\n\nimport './zeppelin-solidity/contracts/math/SafeMath.sol';\nimport './TurtleCoin.sol';\n\n\ncontract TurtleData{\n\n\tusing SafeMath for uint256;\n\n\taddress public listeningContract;\n\n\tTurtleCoin public coinContract;\n\n\tmapping(address => uint256) balances;\n\n\tmapping(address => uint256) requests;\n\n\tmapping(address => uint256) lastChecked;\n\n\tmapping(uint256 => uint256) public Turtles;\n\n\tmapping(uint256 => address) public TurtleOwner;\n\n\tmapping(uint256 => string) public TurtleNames;\n\n\t//number of turtles that someone owns.\n\tmapping(address => uint256) public TurtlesOwned;\n\n\tuint256 public globalTurtles; \n\n\tevent dataSubmitted(address submitter, uint256 data_type, uint256 req);\n\n\tevent sendResponse(address submitter, uint256 encryptType, uint256 req);\n\n\tevent noRequests(address submitter);\n\n\tevent dataRequest(address submitter, uint256 data_type, uint256 encrypt_type);\n\n\tevent mintedTurtle(address sender, string name, uint256 parent1, uint256 parent2);\n\n\tevent turtleTransfer(address to, address from);\n\n\n\tfunction TurtleData(){\n\n\t\tglobalTurtles = 0;\n\n\n\t}\n\n\tfunction setCommunication(address contrac) returns (bool){\n\n\t\tlisteningContract = contrac;\n\n\t\tcoinContract = TurtleCoin(listeningContract);\n\n\t\treturn true;\n\n\t}\n\n\n\tfunction calculateRequests() public returns (uint256){\n\n\t\t//use monthly\n\n\t\trequire(block.number > lastChecked[msg.sender] + 100800);\n\n\t\tuint256 turtleCoinBalance;\n\n\t\tturtleCoinBalance = coinContract.balanceOf(msg.sender);\n\n\t\t//Needs to multiply by number of months since last checked for the case where users havent made requests in multiple months\n\t\tif(turtleCoinBalance >= 0){\n\n\t\t\trequests[msg.sender] = requests[msg.sender].add(turtleCoinBalance/200000000000000000000);\n\n\n\n\n\t\t}\n\n\t\tbalances[msg.sender] = turtleCoinBalance;\n\n\t\tlastChecked[msg.sender] = block.number;\n\n\t\treturn requests[msg.sender];\n\n\n\n\n\t\t}\n\t\n\tfunction updateRequests() public returns (uint256){\n\n\t\t//use if new funds are accquired in turtleCoin\n\n\t\tuint256 turtleCoinBalance;\n\n\t\tuint256 difference;\n\n\t\tturtleCoinBalance = coinContract.balanceOf(msg.sender);\n\n\t\tdifference = turtleCoinBalance.sub(balances[msg.sender]);\n\n\t\t//change to require otherwise users can just keep getting new coins\n\t\tif(difference >= 0){\n\t\n\t\t\trequests[msg.sender] = requests[msg.sender].add(difference/200000000000000000000);\n\n\n\t\t}\n\n\t\tbalances[msg.sender] = turtleCoinBalance;\n\n\t\treturn requests[msg.sender];\n\n\n\n\t}\n\n\n\n\tfunction mintTurtle(string name, uint256 parent1, uint256 parent2){\n\n\t\trequire(verifyTurtleOwner(msg.sender, parent1) && verifyTurtleOwner(msg.sender,parent2));\n\n\t\tif(requests[msg.sender] > 0){\n\n\t\t\trequests[msg.sender] = requests[msg.sender].sub(1);\n\n\t\t\tglobalTurtles = globalTurtles.add(1);\n\n\t\t\t//turtle ids determine features such as attributes and owner\n\t\t\tTurtles[globalTurtles] = now + 123456 + parent1 + parent2 + globalTurtles;\n\n\t\t\tTurtleNames[Turtles[globalTurtles]] = name;\n\n\t\t\tTurtleOwner[Turtles[globalTurtles]] = msg.sender;\n\n\t\t\tTurtlesOwned[msg.sender] = TurtlesOwned[msg.sender].add(1);\n\n\t\t\tmintedTurtle(msg.sender, name, parent1, parent2);\n\n\n\t\t}\n\n\t\telse{\n\n\t\t\tnoRequests(msg.sender);\n\n\n\n\t\t}\n\n\n\n\t}\n\n\tfunction verifyTurtleOwner(address claimer, uint256 turtleId) public returns (bool){\n\n\t\tif(claimer == TurtleOwner[turtleId]){\n\n\t\t\treturn true;\n\n\t\t}\n\n\t\telse{\n\n\t\t\treturn false;\n\t\t}\n\n\n\n\t}\n\n\t//return number of turtles a user owns\n\tfunction turtleCount(address owner) returns(uint256){\n\t\treturn TurtlesOwned[owner];\n\n\n\t}\n\n\tfunction transferTurtle(address _to, uint256 turtleId){\n\n\t\trequire(verifyTurtleOwner(msg.sender, turtleId));\n\n\t\tTurtleOwner[turtleId] = _to;\n\n\t\tturtleTransfer(_to, msg.sender);\n\n\n\t}\n\n\tfunction requestData(uint256 data_type, uint256 encrypt_type){\n\t\tdataRequest(msg.sender, data_type, encrypt_type);\n\n\n\t}\n\n\tfunction balanceret() returns(uint256){\n\t\t\treturn coinContract.balanceOf(msg.sender);\n\n\n\t}\n\n\tfunction turtleName(uint256 turtleId) returns(string){\n\t\treturn TurtleNames[turtleId];\n\n\t}\n\n\n\n\n\n}",
  "sourcePath": "/home/alex4o/Projects/CryptoTurtles-gui/contracts/TurtleData.sol",
  "compiler": {
    "name": "solc",
    "version": "0.4.18+commit.9cf6e910.Emscripten.clang"
  },
  "schemaVersion": "1.0.1",
  "updatedAt": "2017-11-26T10:05:36.911Z"
}