{
  "contractName": "VestedToken",
  "abi": [
    {
      "constant": true,
      "inputs": [
        {
          "name": "_holder",
          "type": "address"
        }
      ],
      "name": "tokenGrantsCount",
      "outputs": [
        {
          "name": "index",
          "type": "uint256"
        }
      ],
      "payable": false,
      "stateMutability": "view",
      "type": "function"
    },
    {
      "constant": false,
      "inputs": [
        {
          "name": "_spender",
          "type": "address"
        },
        {
          "name": "_value",
          "type": "uint256"
        }
      ],
      "name": "approve",
      "outputs": [
        {
          "name": "",
          "type": "bool"
        }
      ],
      "payable": false,
      "stateMutability": "nonpayable",
      "type": "function"
    },
    {
      "constant": true,
      "inputs": [],
      "name": "totalSupply",
      "outputs": [
        {
          "name": "",
          "type": "uint256"
        }
      ],
      "payable": false,
      "stateMutability": "view",
      "type": "function"
    },
    {
      "constant": false,
      "inputs": [
        {
          "name": "_from",
          "type": "address"
        },
        {
          "name": "_to",
          "type": "address"
        },
        {
          "name": "_value",
          "type": "uint256"
        }
      ],
      "name": "transferFrom",
      "outputs": [
        {
          "name": "",
          "type": "bool"
        }
      ],
      "payable": false,
      "stateMutability": "nonpayable",
      "type": "function"
    },
    {
      "constant": true,
      "inputs": [
        {
          "name": "",
          "type": "address"
        },
        {
          "name": "",
          "type": "uint256"
        }
      ],
      "name": "grants",
      "outputs": [
        {
          "name": "granter",
          "type": "address"
        },
        {
          "name": "value",
          "type": "uint256"
        },
        {
          "name": "cliff",
          "type": "uint64"
        },
        {
          "name": "vesting",
          "type": "uint64"
        },
        {
          "name": "start",
          "type": "uint64"
        },
        {
          "name": "revokable",
          "type": "bool"
        },
        {
          "name": "burnsOnRevoke",
          "type": "bool"
        }
      ],
      "payable": false,
      "stateMutability": "view",
      "type": "function"
    },
    {
      "constant": true,
      "inputs": [
        {
          "name": "_holder",
          "type": "address"
        },
        {
          "name": "_grantId",
          "type": "uint256"
        }
      ],
      "name": "tokenGrant",
      "outputs": [
        {
          "name": "granter",
          "type": "address"
        },
        {
          "name": "value",
          "type": "uint256"
        },
        {
          "name": "vested",
          "type": "uint256"
        },
        {
          "name": "start",
          "type": "uint64"
        },
        {
          "name": "cliff",
          "type": "uint64"
        },
        {
          "name": "vesting",
          "type": "uint64"
        },
        {
          "name": "revokable",
          "type": "bool"
        },
        {
          "name": "burnsOnRevoke",
          "type": "bool"
        }
      ],
      "payable": false,
      "stateMutability": "view",
      "type": "function"
    },
    {
      "constant": false,
      "inputs": [
        {
          "name": "_spender",
          "type": "address"
        },
        {
          "name": "_subtractedValue",
          "type": "uint256"
        }
      ],
      "name": "decreaseApproval",
      "outputs": [
        {
          "name": "success",
          "type": "bool"
        }
      ],
      "payable": false,
      "stateMutability": "nonpayable",
      "type": "function"
    },
    {
      "constant": true,
      "inputs": [
        {
          "name": "holder",
          "type": "address"
        }
      ],
      "name": "lastTokenIsTransferableDate",
      "outputs": [
        {
          "name": "date",
          "type": "uint64"
        }
      ],
      "payable": false,
      "stateMutability": "view",
      "type": "function"
    },
    {
      "constant": true,
      "inputs": [
        {
          "name": "_owner",
          "type": "address"
        }
      ],
      "name": "balanceOf",
      "outputs": [
        {
          "name": "balance",
          "type": "uint256"
        }
      ],
      "payable": false,
      "stateMutability": "view",
      "type": "function"
    },
    {
      "constant": false,
      "inputs": [
        {
          "name": "_to",
          "type": "address"
        },
        {
          "name": "_value",
          "type": "uint256"
        },
        {
          "name": "_start",
          "type": "uint64"
        },
        {
          "name": "_cliff",
          "type": "uint64"
        },
        {
          "name": "_vesting",
          "type": "uint64"
        },
        {
          "name": "_revokable",
          "type": "bool"
        },
        {
          "name": "_burnsOnRevoke",
          "type": "bool"
        }
      ],
      "name": "grantVestedTokens",
      "outputs": [],
      "payable": false,
      "stateMutability": "nonpayable",
      "type": "function"
    },
    {
      "constant": false,
      "inputs": [
        {
          "name": "_to",
          "type": "address"
        },
        {
          "name": "_value",
          "type": "uint256"
        }
      ],
      "name": "transfer",
      "outputs": [
        {
          "name": "",
          "type": "bool"
        }
      ],
      "payable": false,
      "stateMutability": "nonpayable",
      "type": "function"
    },
    {
      "constant": true,
      "inputs": [
        {
          "name": "holder",
          "type": "address"
        },
        {
          "name": "time",
          "type": "uint64"
        }
      ],
      "name": "transferableTokens",
      "outputs": [
        {
          "name": "",
          "type": "uint256"
        }
      ],
      "payable": false,
      "stateMutability": "view",
      "type": "function"
    },
    {
      "constant": false,
      "inputs": [
        {
          "name": "_spender",
          "type": "address"
        },
        {
          "name": "_addedValue",
          "type": "uint256"
        }
      ],
      "name": "increaseApproval",
      "outputs": [
        {
          "name": "success",
          "type": "bool"
        }
      ],
      "payable": false,
      "stateMutability": "nonpayable",
      "type": "function"
    },
    {
      "constant": true,
      "inputs": [
        {
          "name": "_owner",
          "type": "address"
        },
        {
          "name": "_spender",
          "type": "address"
        }
      ],
      "name": "allowance",
      "outputs": [
        {
          "name": "remaining",
          "type": "uint256"
        }
      ],
      "payable": false,
      "stateMutability": "view",
      "type": "function"
    },
    {
      "constant": true,
      "inputs": [
        {
          "name": "tokens",
          "type": "uint256"
        },
        {
          "name": "time",
          "type": "uint256"
        },
        {
          "name": "start",
          "type": "uint256"
        },
        {
          "name": "cliff",
          "type": "uint256"
        },
        {
          "name": "vesting",
          "type": "uint256"
        }
      ],
      "name": "calculateVestedTokens",
      "outputs": [
        {
          "name": "",
          "type": "uint256"
        }
      ],
      "payable": false,
      "stateMutability": "view",
      "type": "function"
    },
    {
      "constant": false,
      "inputs": [
        {
          "name": "_holder",
          "type": "address"
        },
        {
          "name": "_grantId",
          "type": "uint256"
        }
      ],
      "name": "revokeTokenGrant",
      "outputs": [],
      "payable": false,
      "stateMutability": "nonpayable",
      "type": "function"
    },
    {
      "anonymous": false,
      "inputs": [
        {
          "indexed": true,
          "name": "from",
          "type": "address"
        },
        {
          "indexed": true,
          "name": "to",
          "type": "address"
        },
        {
          "indexed": false,
          "name": "value",
          "type": "uint256"
        },
        {
          "indexed": false,
          "name": "grantId",
          "type": "uint256"
        }
      ],
      "name": "NewTokenGrant",
      "type": "event"
    },
    {
      "anonymous": false,
      "inputs": [
        {
          "indexed": true,
          "name": "owner",
          "type": "address"
        },
        {
          "indexed": true,
          "name": "spender",
          "type": "address"
        },
        {
          "indexed": false,
          "name": "value",
          "type": "uint256"
        }
      ],
      "name": "Approval",
      "type": "event"
    },
    {
      "anonymous": false,
      "inputs": [
        {
          "indexed": true,
          "name": "from",
          "type": "address"
        },
        {
          "indexed": true,
          "name": "to",
          "type": "address"
        },
        {
          "indexed": false,
          "name": "value",
          "type": "uint256"
        }
      ],
      "name": "Transfer",
      "type": "event"
    }
  ],
  "bytecode": "0x60606040526014600355341561001457600080fd5b612831806100236000396000f3006060604052600436106100e6576000357c0100000000000000000000000000000000000000000000000000000000900463ffffffff16806302a72a4c146100eb578063095ea7b31461013857806318160ddd1461019257806323b872dd146101bb5780632c71e60a14610234578063600e85b714610324578063661884631461041b5780636c182e991461047557806370a08231146104d65780639754a4d914610523578063a9059cbb146105b4578063d347c2051461060e578063d73dd6231461066e578063dd62ed3e146106c8578063df3c211b14610734578063eb944e4c1461078f575b600080fd5b34156100f657600080fd5b610122600480803573ffffffffffffffffffffffffffffffffffffffff169060200190919050506107d1565b6040518082815260200191505060405180910390f35b341561014357600080fd5b610178600480803573ffffffffffffffffffffffffffffffffffffffff1690602001909190803590602001909190505061081d565b604051808215151515815260200191505060405180910390f35b341561019d57600080fd5b6101a56109a4565b6040518082815260200191505060405180910390f35b34156101c657600080fd5b61021a600480803573ffffffffffffffffffffffffffffffffffffffff1690602001909190803573ffffffffffffffffffffffffffffffffffffffff169060200190919080359060200190919050506109aa565b604051808215151515815260200191505060405180910390f35b341561023f57600080fd5b610274600480803573ffffffffffffffffffffffffffffffffffffffff169060200190919080359060200190919050506109dc565b604051808873ffffffffffffffffffffffffffffffffffffffff1673ffffffffffffffffffffffffffffffffffffffff1681526020018781526020018667ffffffffffffffff1667ffffffffffffffff1681526020018567ffffffffffffffff1667ffffffffffffffff1681526020018467ffffffffffffffff1667ffffffffffffffff168152602001831515151581526020018215151515815260200197505050505050505060405180910390f35b341561032f57600080fd5b610364600480803573ffffffffffffffffffffffffffffffffffffffff16906020019091908035906020019091905050610ab0565b604051808973ffffffffffffffffffffffffffffffffffffffff1673ffffffffffffffffffffffffffffffffffffffff1681526020018881526020018781526020018667ffffffffffffffff1667ffffffffffffffff1681526020018567ffffffffffffffff1667ffffffffffffffff1681526020018467ffffffffffffffff1667ffffffffffffffff16815260200183151515158152602001821515151581526020019850505050505050505060405180910390f35b341561042657600080fd5b61045b600480803573ffffffffffffffffffffffffffffffffffffffff16906020019091908035906020019091905050610d13565b604051808215151515815260200191505060405180910390f35b341561048057600080fd5b6104ac600480803573ffffffffffffffffffffffffffffffffffffffff16906020019091905050610fa4565b604051808267ffffffffffffffff1667ffffffffffffffff16815260200191505060405180910390f35b34156104e157600080fd5b61050d600480803573ffffffffffffffffffffffffffffffffffffffff1690602001909190505061108f565b6040518082815260200191505060405180910390f35b341561052e57600080fd5b6105b2600480803573ffffffffffffffffffffffffffffffffffffffff1690602001909190803590602001909190803567ffffffffffffffff1690602001909190803567ffffffffffffffff1690602001909190803567ffffffffffffffff16906020019091908035151590602001909190803515159060200190919050506110d8565b005b34156105bf57600080fd5b6105f4600480803573ffffffffffffffffffffffffffffffffffffffff169060200190919080359060200190919050506113bb565b604051808215151515815260200191505060405180910390f35b341561061957600080fd5b610658600480803573ffffffffffffffffffffffffffffffffffffffff1690602001909190803567ffffffffffffffff169060200190919050506113eb565b6040518082815260200191505060405180910390f35b341561067957600080fd5b6106ae600480803573ffffffffffffffffffffffffffffffffffffffff16906020019091908035906020019091905050611610565b604051808215151515815260200191505060405180910390f35b34156106d357600080fd5b61071e600480803573ffffffffffffffffffffffffffffffffffffffff1690602001909190803573ffffffffffffffffffffffffffffffffffffffff1690602001909190505061180c565b6040518082815260200191505060405180910390f35b341561073f57600080fd5b6107796004808035906020019091908035906020019091908035906020019091908035906020019091908035906020019091905050611893565b6040518082815260200191505060405180910390f35b341561079a57600080fd5b6107cf600480803573ffffffffffffffffffffffffffffffffffffffff169060200190919080359060200190919050506118ed565b005b6000600460008373ffffffffffffffffffffffffffffffffffffffff1673ffffffffffffffffffffffffffffffffffffffff168152602001908152602001600020805490509050919050565b6000808214806108a957506000600260003373ffffffffffffffffffffffffffffffffffffffff1673ffffffffffffffffffffffffffffffffffffffff16815260200190815260200160002060008573ffffffffffffffffffffffffffffffffffffffff1673ffffffffffffffffffffffffffffffffffffffff16815260200190815260200160002054145b15156108b457600080fd5b81600260003373ffffffffffffffffffffffffffffffffffffffff1673ffffffffffffffffffffffffffffffffffffffff16815260200190815260200160002060008573ffffffffffffffffffffffffffffffffffffffff1673ffffffffffffffffffffffffffffffffffffffff168152602001908152602001600020819055508273ffffffffffffffffffffffffffffffffffffffff163373ffffffffffffffffffffffffffffffffffffffff167f8c5be1e5ebec7d5bd14f71427d1e84f3dd0314c0f7b2291e5b200ac8c7c3b925846040518082815260200191505060405180910390a36001905092915050565b60005481565b600083826109b882426113eb565b81111515156109c657600080fd5b6109d18686866120c0565b925050509392505050565b6004602052816000526040600020818154811015156109f757fe5b9060005260206000209060030201600091509150508060000160009054906101000a900473ffffffffffffffffffffffffffffffffffffffff16908060010154908060020160009054906101000a900467ffffffffffffffff16908060020160089054906101000a900467ffffffffffffffff16908060020160109054906101000a900467ffffffffffffffff16908060020160189054906101000a900460ff16908060020160199054906101000a900460ff16905087565b6000806000806000806000806000600460008c73ffffffffffffffffffffffffffffffffffffffff1673ffffffffffffffffffffffffffffffffffffffff1681526020019081526020016000208a815481101515610b0a57fe5b906000526020600020906003020190508060000160009054906101000a900473ffffffffffffffffffffffffffffffffffffffff169850806001015497508060020160109054906101000a900467ffffffffffffffff1695508060020160009054906101000a900467ffffffffffffffff1694508060020160089054906101000a900467ffffffffffffffff1693508060020160189054906101000a900460ff1692508060020160199054906101000a900460ff169150610d038160e060405190810160405290816000820160009054906101000a900473ffffffffffffffffffffffffffffffffffffffff1673ffffffffffffffffffffffffffffffffffffffff1673ffffffffffffffffffffffffffffffffffffffff168152602001600182015481526020016002820160009054906101000a900467ffffffffffffffff1667ffffffffffffffff1667ffffffffffffffff1681526020016002820160089054906101000a900467ffffffffffffffff1667ffffffffffffffff1667ffffffffffffffff1681526020016002820160109054906101000a900467ffffffffffffffff1667ffffffffffffffff1667ffffffffffffffff1681526020016002820160189054906101000a900460ff161515151581526020016002820160199054906101000a900460ff161515151581525050426123ac565b9650509295985092959890939650565b600080600260003373ffffffffffffffffffffffffffffffffffffffff1673ffffffffffffffffffffffffffffffffffffffff16815260200190815260200160002060008573ffffffffffffffffffffffffffffffffffffffff1673ffffffffffffffffffffffffffffffffffffffff16815260200190815260200160002054905080831115610e24576000600260003373ffffffffffffffffffffffffffffffffffffffff1673ffffffffffffffffffffffffffffffffffffffff16815260200190815260200160002060008673ffffffffffffffffffffffffffffffffffffffff1673ffffffffffffffffffffffffffffffffffffffff16815260200190815260200160002081905550610eb8565b610e3783826123fb90919063ffffffff16565b600260003373ffffffffffffffffffffffffffffffffffffffff1673ffffffffffffffffffffffffffffffffffffffff16815260200190815260200160002060008673ffffffffffffffffffffffffffffffffffffffff1673ffffffffffffffffffffffffffffffffffffffff168152602001908152602001600020819055505b8373ffffffffffffffffffffffffffffffffffffffff163373ffffffffffffffffffffffffffffffffffffffff167f8c5be1e5ebec7d5bd14f71427d1e84f3dd0314c0f7b2291e5b200ac8c7c3b925600260003373ffffffffffffffffffffffffffffffffffffffff1673ffffffffffffffffffffffffffffffffffffffff16815260200190815260200160002060008873ffffffffffffffffffffffffffffffffffffffff1673ffffffffffffffffffffffffffffffffffffffff168152602001908152602001600020546040518082815260200191505060405180910390a3600191505092915050565b6000806000429250600460008573ffffffffffffffffffffffffffffffffffffffff1673ffffffffffffffffffffffffffffffffffffffff168152602001908152602001600020805490509150600090505b8181101561108857611079600460008673ffffffffffffffffffffffffffffffffffffffff1673ffffffffffffffffffffffffffffffffffffffff1681526020019081526020016000208281548110151561104d57fe5b906000526020600020906003020160020160089054906101000a900467ffffffffffffffff1684612414565b92508080600101915050610ff6565b5050919050565b6000600160008373ffffffffffffffffffffffffffffffffffffffff1673ffffffffffffffffffffffffffffffffffffffff168152602001908152602001600020549050919050565b60008567ffffffffffffffff168567ffffffffffffffff161015801561111257508467ffffffffffffffff168467ffffffffffffffff1610155b151561111d57600080fd5b600354611129896107d1565b10151561113557600080fd5b600460008973ffffffffffffffffffffffffffffffffffffffff1673ffffffffffffffffffffffffffffffffffffffff168152602001908152602001600020805480600101828161118691906126da565b9160005260206000209060030201600060e060405190810160405280876111ae5760006111b0565b335b73ffffffffffffffffffffffffffffffffffffffff1681526020018b81526020018967ffffffffffffffff1681526020018867ffffffffffffffff1681526020018a67ffffffffffffffff1681526020018715158152602001861515815250909190915060008201518160000160006101000a81548173ffffffffffffffffffffffffffffffffffffffff021916908373ffffffffffffffffffffffffffffffffffffffff1602179055506020820151816001015560408201518160020160006101000a81548167ffffffffffffffff021916908367ffffffffffffffff16021790555060608201518160020160086101000a81548167ffffffffffffffff021916908367ffffffffffffffff16021790555060808201518160020160106101000a81548167ffffffffffffffff021916908367ffffffffffffffff16021790555060a08201518160020160186101000a81548160ff02191690831515021790555060c08201518160020160196101000a81548160ff0219169083151502179055505050905061134088886113bb565b508773ffffffffffffffffffffffffffffffffffffffff163373ffffffffffffffffffffffffffffffffffffffff167ff9565aecd648a0466ffb964a79eeccdf1120ad6276189c687a6e9fe73984d9bb8960018503604051808381526020018281526020019250505060405180910390a35050505050505050565b600033826113c982426113eb565b81111515156113d757600080fd5b6113e18585612442565b9250505092915050565b60008060008060006113fc876107d1565b93506000841415611418576114118787612618565b9450611606565b60009250600091505b838210156115dc576115cd836115c8600460008b73ffffffffffffffffffffffffffffffffffffffff1673ffffffffffffffffffffffffffffffffffffffff1681526020019081526020016000208581548110151561147c57fe5b906000526020600020906003020160e060405190810160405290816000820160009054906101000a900473ffffffffffffffffffffffffffffffffffffffff1673ffffffffffffffffffffffffffffffffffffffff1673ffffffffffffffffffffffffffffffffffffffff168152602001600182015481526020016002820160009054906101000a900467ffffffffffffffff1667ffffffffffffffff1667ffffffffffffffff1681526020016002820160089054906101000a900467ffffffffffffffff1667ffffffffffffffff1667ffffffffffffffff1681526020016002820160109054906101000a900467ffffffffffffffff1667ffffffffffffffff1667ffffffffffffffff1681526020016002820160189054906101000a900460ff161515151581526020016002820160199054906101000a900460ff1615151515815250508961262b565b612655565b92508180600101925050611421565b6115ee6115e88861108f565b846123fb565b9050611603816115fe8989612618565b612673565b94505b5050505092915050565b60006116a182600260003373ffffffffffffffffffffffffffffffffffffffff1673ffffffffffffffffffffffffffffffffffffffff16815260200190815260200160002060008673ffffffffffffffffffffffffffffffffffffffff1673ffffffffffffffffffffffffffffffffffffffff1681526020019081526020016000205461265590919063ffffffff16565b600260003373ffffffffffffffffffffffffffffffffffffffff1673ffffffffffffffffffffffffffffffffffffffff16815260200190815260200160002060008573ffffffffffffffffffffffffffffffffffffffff1673ffffffffffffffffffffffffffffffffffffffff168152602001908152602001600020819055508273ffffffffffffffffffffffffffffffffffffffff163373ffffffffffffffffffffffffffffffffffffffff167f8c5be1e5ebec7d5bd14f71427d1e84f3dd0314c0f7b2291e5b200ac8c7c3b925600260003373ffffffffffffffffffffffffffffffffffffffff1673ffffffffffffffffffffffffffffffffffffffff16815260200190815260200160002060008773ffffffffffffffffffffffffffffffffffffffff1673ffffffffffffffffffffffffffffffffffffffff168152602001908152602001600020546040518082815260200191505060405180910390a36001905092915050565b6000600260008473ffffffffffffffffffffffffffffffffffffffff1673ffffffffffffffffffffffffffffffffffffffff16815260200190815260200160002060008373ffffffffffffffffffffffffffffffffffffffff1673ffffffffffffffffffffffffffffffffffffffff16815260200190815260200160002054905092915050565b600080838610156118a757600091506118e3565b82861015156118b8578691506118e3565b6118dd6118ce886118c989896123fb565b61268c565b6118d885886123fb565b6126bf565b90508091505b5095945050505050565b6000806000600460008673ffffffffffffffffffffffffffffffffffffffff1673ffffffffffffffffffffffffffffffffffffffff1681526020019081526020016000208481548110151561193e57fe5b906000526020600020906003020192508260020160189054906101000a900460ff16151561196b57600080fd5b3373ffffffffffffffffffffffffffffffffffffffff168360000160009054906101000a900473ffffffffffffffffffffffffffffffffffffffff1673ffffffffffffffffffffffffffffffffffffffff161415156119c957600080fd5b8260020160199054906101000a900460ff166119e557336119e9565b61dead5b9150611b2d8360e060405190810160405290816000820160009054906101000a900473ffffffffffffffffffffffffffffffffffffffff1673ffffffffffffffffffffffffffffffffffffffff1673ffffffffffffffffffffffffffffffffffffffff168152602001600182015481526020016002820160009054906101000a900467ffffffffffffffff1667ffffffffffffffff1667ffffffffffffffff1681526020016002820160089054906101000a900467ffffffffffffffff1667ffffffffffffffff1667ffffffffffffffff1681526020016002820160109054906101000a900467ffffffffffffffff1667ffffffffffffffff1667ffffffffffffffff1681526020016002820160189054906101000a900460ff161515151581526020016002820160199054906101000a900460ff1615151515815250504261262b565b9050600460008673ffffffffffffffffffffffffffffffffffffffff1673ffffffffffffffffffffffffffffffffffffffff16815260200190815260200160002084815481101515611b7b57fe5b9060005260206000209060030201600080820160006101000a81549073ffffffffffffffffffffffffffffffffffffffff021916905560018201600090556002820160006101000a81549067ffffffffffffffff02191690556002820160086101000a81549067ffffffffffffffff02191690556002820160106101000a81549067ffffffffffffffff02191690556002820160186101000a81549060ff02191690556002820160196101000a81549060ff02191690555050600460008673ffffffffffffffffffffffffffffffffffffffff1673ffffffffffffffffffffffffffffffffffffffff168152602001908152602001600020611cc96001600460008973ffffffffffffffffffffffffffffffffffffffff1673ffffffffffffffffffffffffffffffffffffffff168152602001908152602001600020805490506123fb90919063ffffffff16565b815481101515611cd557fe5b9060005260206000209060030201600460008773ffffffffffffffffffffffffffffffffffffffff1673ffffffffffffffffffffffffffffffffffffffff16815260200190815260200160002085815481101515611d2f57fe5b90600052602060002090600302016000820160009054906101000a900473ffffffffffffffffffffffffffffffffffffffff168160000160006101000a81548173ffffffffffffffffffffffffffffffffffffffff021916908373ffffffffffffffffffffffffffffffffffffffff160217905550600182015481600101556002820160009054906101000a900467ffffffffffffffff168160020160006101000a81548167ffffffffffffffff021916908367ffffffffffffffff1602179055506002820160089054906101000a900467ffffffffffffffff168160020160086101000a81548167ffffffffffffffff021916908367ffffffffffffffff1602179055506002820160109054906101000a900467ffffffffffffffff168160020160106101000a81548167ffffffffffffffff021916908367ffffffffffffffff1602179055506002820160189054906101000a900460ff168160020160186101000a81548160ff0219169083151502179055506002820160199054906101000a900460ff168160020160196101000a81548160ff0219169083151502179055509050506001600460008773ffffffffffffffffffffffffffffffffffffffff1673ffffffffffffffffffffffffffffffffffffffff16815260200190815260200160002081818054905003915081611f29919061270c565b50611f7c81600160008573ffffffffffffffffffffffffffffffffffffffff1673ffffffffffffffffffffffffffffffffffffffff1681526020019081526020016000205461265590919063ffffffff16565b600160008473ffffffffffffffffffffffffffffffffffffffff1673ffffffffffffffffffffffffffffffffffffffff1681526020019081526020016000208190555061201181600160008873ffffffffffffffffffffffffffffffffffffffff1673ffffffffffffffffffffffffffffffffffffffff168152602001908152602001600020546123fb90919063ffffffff16565b600160008773ffffffffffffffffffffffffffffffffffffffff1673ffffffffffffffffffffffffffffffffffffffff168152602001908152602001600020819055508173ffffffffffffffffffffffffffffffffffffffff168573ffffffffffffffffffffffffffffffffffffffff167fddf252ad1be2c89b69c2b068fc378daa952ba7f163c4a11628f55a4df523b3ef836040518082815260200191505060405180910390a35050505050565b600080600073ffffffffffffffffffffffffffffffffffffffff168473ffffffffffffffffffffffffffffffffffffffff16141515156120ff57600080fd5b600260008673ffffffffffffffffffffffffffffffffffffffff1673ffffffffffffffffffffffffffffffffffffffff16815260200190815260200160002060003373ffffffffffffffffffffffffffffffffffffffff1673ffffffffffffffffffffffffffffffffffffffff1681526020019081526020016000205490506121d083600160008873ffffffffffffffffffffffffffffffffffffffff1673ffffffffffffffffffffffffffffffffffffffff168152602001908152602001600020546123fb90919063ffffffff16565b600160008773ffffffffffffffffffffffffffffffffffffffff1673ffffffffffffffffffffffffffffffffffffffff1681526020019081526020016000208190555061226583600160008773ffffffffffffffffffffffffffffffffffffffff1673ffffffffffffffffffffffffffffffffffffffff1681526020019081526020016000205461265590919063ffffffff16565b600160008673ffffffffffffffffffffffffffffffffffffffff1673ffffffffffffffffffffffffffffffffffffffff168152602001908152602001600020819055506122bb83826123fb90919063ffffffff16565b600260008773ffffffffffffffffffffffffffffffffffffffff1673ffffffffffffffffffffffffffffffffffffffff16815260200190815260200160002060003373ffffffffffffffffffffffffffffffffffffffff1673ffffffffffffffffffffffffffffffffffffffff168152602001908152602001600020819055508373ffffffffffffffffffffffffffffffffffffffff168573ffffffffffffffffffffffffffffffffffffffff167fddf252ad1be2c89b69c2b068fc378daa952ba7f163c4a11628f55a4df523b3ef856040518082815260200191505060405180910390a360019150509392505050565b60006123f383602001518367ffffffffffffffff16856080015167ffffffffffffffff16866040015167ffffffffffffffff16876060015167ffffffffffffffff16611893565b905092915050565b600082821115151561240957fe5b818303905092915050565b60008167ffffffffffffffff168367ffffffffffffffff161015612438578161243a565b825b905092915050565b60008073ffffffffffffffffffffffffffffffffffffffff168373ffffffffffffffffffffffffffffffffffffffff161415151561247f57600080fd5b6124d182600160003373ffffffffffffffffffffffffffffffffffffffff1673ffffffffffffffffffffffffffffffffffffffff168152602001908152602001600020546123fb90919063ffffffff16565b600160003373ffffffffffffffffffffffffffffffffffffffff1673ffffffffffffffffffffffffffffffffffffffff1681526020019081526020016000208190555061256682600160008673ffffffffffffffffffffffffffffffffffffffff1673ffffffffffffffffffffffffffffffffffffffff1681526020019081526020016000205461265590919063ffffffff16565b600160008573ffffffffffffffffffffffffffffffffffffffff1673ffffffffffffffffffffffffffffffffffffffff168152602001908152602001600020819055508273ffffffffffffffffffffffffffffffffffffffff163373ffffffffffffffffffffffffffffffffffffffff167fddf252ad1be2c89b69c2b068fc378daa952ba7f163c4a11628f55a4df523b3ef846040518082815260200191505060405180910390a36001905092915050565b60006126238361108f565b905092915050565b600061264d61263a84846123ac565b84602001516123fb90919063ffffffff16565b905092915050565b600080828401905083811015151561266957fe5b8091505092915050565b60008183106126825781612684565b825b905092915050565b600080828402905060008414806126ad57508284828115156126aa57fe5b04145b15156126b557fe5b8091505092915050565b60008082848115156126cd57fe5b0490508091505092915050565b81548183558181151161270757600302816003028360005260206000209182019101612706919061273e565b5b505050565b81548183558181151161273957600302816003028360005260206000209182019101612738919061273e565b5b505050565b61280291905b808211156127fe57600080820160006101000a81549073ffffffffffffffffffffffffffffffffffffffff021916905560018201600090556002820160006101000a81549067ffffffffffffffff02191690556002820160086101000a81549067ffffffffffffffff02191690556002820160106101000a81549067ffffffffffffffff02191690556002820160186101000a81549060ff02191690556002820160196101000a81549060ff021916905550600301612744565b5090565b905600a165627a7a72305820e4326b8347f61e091fc45e7e43cbc077f2b2824bf127fe74be1a4704494a31d90029",
  "source": "pragma solidity ^0.4.11;\n\nimport \"../math/Math.sol\";\nimport \"./StandardToken.sol\";\nimport \"./LimitedTransferToken.sol\";\n\n/**\n * @title Vested token\n * @dev Tokens that can be vested for a group of addresses.\n */\ncontract VestedToken is StandardToken, LimitedTransferToken {\n\n  uint256 MAX_GRANTS_PER_ADDRESS = 20;\n\n  struct TokenGrant {\n    address granter;     // 20 bytes\n    uint256 value;       // 32 bytes\n    uint64 cliff;\n    uint64 vesting;\n    uint64 start;        // 3 * 8 = 24 bytes\n    bool revokable;\n    bool burnsOnRevoke;  // 2 * 1 = 2 bits? or 2 bytes?\n  } // total 78 bytes = 3 sstore per operation (32 per sstore)\n\n  mapping (address => TokenGrant[]) public grants;\n\n  event NewTokenGrant(address indexed from, address indexed to, uint256 value, uint256 grantId);\n\n  /**\n   * @dev Grant tokens to a specified address\n   * @param _to address The address which the tokens will be granted to.\n   * @param _value uint256 The amount of tokens to be granted.\n   * @param _start uint64 Time of the beginning of the grant.\n   * @param _cliff uint64 Time of the cliff period.\n   * @param _vesting uint64 The vesting period.\n   */\n  function grantVestedTokens(\n    address _to,\n    uint256 _value,\n    uint64 _start,\n    uint64 _cliff,\n    uint64 _vesting,\n    bool _revokable,\n    bool _burnsOnRevoke\n  ) public {\n\n    // Check for date inconsistencies that may cause unexpected behavior\n    require(_cliff >= _start && _vesting >= _cliff);\n\n    require(tokenGrantsCount(_to) < MAX_GRANTS_PER_ADDRESS);   // To prevent a user being spammed and have his balance locked (out of gas attack when calculating vesting).\n\n    uint256 count = grants[_to].push(\n                TokenGrant(\n                  _revokable ? msg.sender : 0, // avoid storing an extra 20 bytes when it is non-revokable\n                  _value,\n                  _cliff,\n                  _vesting,\n                  _start,\n                  _revokable,\n                  _burnsOnRevoke\n                )\n              );\n\n    transfer(_to, _value);\n\n    NewTokenGrant(msg.sender, _to, _value, count - 1);\n  }\n\n  /**\n   * @dev Revoke the grant of tokens of a specifed address.\n   * @param _holder The address which will have its tokens revoked.\n   * @param _grantId The id of the token grant.\n   */\n  function revokeTokenGrant(address _holder, uint256 _grantId) public {\n    TokenGrant storage grant = grants[_holder][_grantId];\n\n    require(grant.revokable);\n    require(grant.granter == msg.sender); // Only granter can revoke it\n\n    address receiver = grant.burnsOnRevoke ? 0xdead : msg.sender;\n\n    uint256 nonVested = nonVestedTokens(grant, uint64(now));\n\n    // remove grant from array\n    delete grants[_holder][_grantId];\n    grants[_holder][_grantId] = grants[_holder][grants[_holder].length.sub(1)];\n    grants[_holder].length -= 1;\n\n    balances[receiver] = balances[receiver].add(nonVested);\n    balances[_holder] = balances[_holder].sub(nonVested);\n\n    Transfer(_holder, receiver, nonVested);\n  }\n\n\n  /**\n   * @dev Calculate the total amount of transferable tokens of a holder at a given time\n   * @param holder address The address of the holder\n   * @param time uint64 The specific time.\n   * @return An uint256 representing a holder's total amount of transferable tokens.\n   */\n  function transferableTokens(address holder, uint64 time) constant public returns (uint256) {\n    uint256 grantIndex = tokenGrantsCount(holder);\n\n    if (grantIndex == 0) return super.transferableTokens(holder, time); // shortcut for holder without grants\n\n    // Iterate through all the grants the holder has, and add all non-vested tokens\n    uint256 nonVested = 0;\n    for (uint256 i = 0; i < grantIndex; i++) {\n      nonVested = SafeMath.add(nonVested, nonVestedTokens(grants[holder][i], time));\n    }\n\n    // Balance - totalNonVested is the amount of tokens a holder can transfer at any given time\n    uint256 vestedTransferable = SafeMath.sub(balanceOf(holder), nonVested);\n\n    // Return the minimum of how many vested can transfer and other value\n    // in case there are other limiting transferability factors (default is balanceOf)\n    return Math.min256(vestedTransferable, super.transferableTokens(holder, time));\n  }\n\n  /**\n   * @dev Check the amount of grants that an address has.\n   * @param _holder The holder of the grants.\n   * @return A uint256 representing the total amount of grants.\n   */\n  function tokenGrantsCount(address _holder) constant returns (uint256 index) {\n    return grants[_holder].length;\n  }\n\n  /**\n   * @dev Calculate amount of vested tokens at a specifc time.\n   * @param tokens uint256 The amount of tokens grantted.\n   * @param time uint64 The time to be checked\n   * @param start uint64 A time representing the begining of the grant\n   * @param cliff uint64 The cliff period.\n   * @param vesting uint64 The vesting period.\n   * @return An uint256 representing the amount of vested tokensof a specif grant.\n   *  transferableTokens\n   *   |                         _/--------   vestedTokens rect\n   *   |                       _/\n   *   |                     _/\n   *   |                   _/\n   *   |                 _/\n   *   |                /\n   *   |              .|\n   *   |            .  |\n   *   |          .    |\n   *   |        .      |\n   *   |      .        |\n   *   |    .          |\n   *   +===+===========+---------+----------> time\n   *      Start       Clift    Vesting\n   */\n  function calculateVestedTokens(\n    uint256 tokens,\n    uint256 time,\n    uint256 start,\n    uint256 cliff,\n    uint256 vesting) constant returns (uint256)\n    {\n      // Shortcuts for before cliff and after vesting cases.\n      if (time < cliff) return 0;\n      if (time >= vesting) return tokens;\n\n      // Interpolate all vested tokens.\n      // As before cliff the shortcut returns 0, we can use just calculate a value\n      // in the vesting rect (as shown in above's figure)\n\n      // vestedTokens = tokens * (time - start) / (vesting - start)\n      uint256 vestedTokens = SafeMath.div(\n                                    SafeMath.mul(\n                                      tokens,\n                                      SafeMath.sub(time, start)\n                                      ),\n                                    SafeMath.sub(vesting, start)\n                                    );\n\n      return vestedTokens;\n  }\n\n  /**\n   * @dev Get all information about a specifc grant.\n   * @param _holder The address which will have its tokens revoked.\n   * @param _grantId The id of the token grant.\n   * @return Returns all the values that represent a TokenGrant(address, value, start, cliff,\n   * revokability, burnsOnRevoke, and vesting) plus the vested value at the current time.\n   */\n  function tokenGrant(address _holder, uint256 _grantId) constant returns (address granter, uint256 value, uint256 vested, uint64 start, uint64 cliff, uint64 vesting, bool revokable, bool burnsOnRevoke) {\n    TokenGrant storage grant = grants[_holder][_grantId];\n\n    granter = grant.granter;\n    value = grant.value;\n    start = grant.start;\n    cliff = grant.cliff;\n    vesting = grant.vesting;\n    revokable = grant.revokable;\n    burnsOnRevoke = grant.burnsOnRevoke;\n\n    vested = vestedTokens(grant, uint64(now));\n  }\n\n  /**\n   * @dev Get the amount of vested tokens at a specific time.\n   * @param grant TokenGrant The grant to be checked.\n   * @param time The time to be checked\n   * @return An uint256 representing the amount of vested tokens of a specific grant at a specific time.\n   */\n  function vestedTokens(TokenGrant grant, uint64 time) private constant returns (uint256) {\n    return calculateVestedTokens(\n      grant.value,\n      uint256(time),\n      uint256(grant.start),\n      uint256(grant.cliff),\n      uint256(grant.vesting)\n    );\n  }\n\n  /**\n   * @dev Calculate the amount of non vested tokens at a specific time.\n   * @param grant TokenGrant The grant to be checked.\n   * @param time uint64 The time to be checked\n   * @return An uint256 representing the amount of non vested tokens of a specifc grant on the\n   * passed time frame.\n   */\n  function nonVestedTokens(TokenGrant grant, uint64 time) private constant returns (uint256) {\n    return grant.value.sub(vestedTokens(grant, time));\n  }\n\n  /**\n   * @dev Calculate the date when the holder can trasfer all its tokens\n   * @param holder address The address of the holder\n   * @return An uint256 representing the date of the last transferable tokens.\n   */\n  function lastTokenIsTransferableDate(address holder) constant public returns (uint64 date) {\n    date = uint64(now);\n    uint256 grantIndex = grants[holder].length;\n    for (uint256 i = 0; i < grantIndex; i++) {\n      date = Math.max64(grants[holder][i].vesting, date);\n    }\n  }\n}\n",
  "sourcePath": "/home/alex4o/Projects/CryptoTurtles-gui/contracts/zeppelin-solidity/contracts/token/VestedToken.sol",
  "compiler": {
    "name": "solc",
    "version": "0.4.18+commit.9cf6e910.Emscripten.clang"
  },
  "schemaVersion": "1.0.1",
  "updatedAt": "2017-11-25T22:05:38.951Z"
}